:10C000002800140032000101314000043C400802C5
:10C010003D400E00B0120EC83C4000023D4000C042
:10C020003E400800B0122CC8B012F6C6B01234C898
:10C030000612064D0656369001FF802C064F065616
:10C04000369001FF0C2C064F36F000800DE6064DB1
:10C050000656369000FF0520064F06566F203D43DA
:10C060006D3C064F0656369000FF3640FF7F082095
:10C070000DB6F5273DF000803DD0807F0C435E3C3F
:10C080000DB65C240FB602200DC6F83F0A120B1243
:10C0900008120A4C0B4D3BD080000D5D8D10484DB1
:10C0A0000C430D4306430E930D2416434E9302207A
:10C0B00086108E100E1002280C5A4D6B4D100C106D
:10C0C0000666F82B2643012416D30F1002280C5ABB
:10C0D0004D6B4D100C104666F82B3FF0FF00085FCB
:10C0E00038807F0010303890FF000F340C5A4D6BB1
:10C0F000122C0893042406110C6C4D6D0F3C7D939B
:10C1000002203C930B240D43023C3D4000FF0B5B9F
:10C110000D100C43103C18537893F7270B5B481015
:10C120004D1088100DD80C100628069302201CB361
:10C1300002241C530D6338413B413A4136413041A2
:10C140000A1282437401B240D00794010A43053CAD
:10C150001C420202B0129EC71A531A9204020D2CFE
:10C160009252000274011C420202B0129EC7C29396
:10C170001402EE27C2431402583CB240D0077401A7
:10C18000824394010A43053C1C420202B0129EC73E
:10C190001A531A9204020D2C9252000294011C426E
:10C1A0000202B0129EC7C2931402EE27C2431402C9
:10C1B0003C3C8243940182437401B240D007960113
:10C1C0000A43053C1C420202B0129EC71A531A923F
:10C1D00004020D2C9252000274011C420202B012A1
:10C1E0009EC7C2931402EE27C24314021E3CB24003
:10C1F000D0077401824396010A43053C1C420202A7
:10C20000B0129EC71A531A9204020D2C92520002C9
:10C2100096011C420202B0129EC7C2931402EE277E
:10C22000C2431402023C824396013A413041D29308
:10C2300006024C20B0121EC8B01274C70D43B012D3
:10C240002AC4824C0802824D0A02B0125EC70D4316
:10C25000B0122AC4824C0C02824D0E02B01248C7A2
:10C260000D43B0122AC4824C1002824D12021C42AD
:10C2700008021D420A023E409A993F40F93FB0121F
:10C2800030C0B0120CC6824C94011C420C021D42FC
:10C290000E023E409A993F40F93FB01230C0B012B2
:10C2A0000CC6824C96011C4210021D4212023E40F6
:10C2B0009A993F40F93FB01230C0B0120CC6824C80
:10C2C00074013C402800B0129EC73041C293060260
:10C2D0001820B0121EC85E4207025E8307245E83E8
:10C2E00008245E8309245E830A243041B012A8C466
:10C2F0003041B0129CC33041B01204C33041B0127F
:10C3000040C130410A120A43053C1C420202B012ED
:10C310009EC71A531A9204020C2C925200029601E4
:10C32000925200029401C2931402EF27C2431402F6
:10C33000333C82439601824394010A43053C1C42EC
:10C340000202B0129EC71A531A9204020C2C925287
:10C3500000029601925200027401C2931402EF2768
:10C36000C2431402193C82439601824374010A437A
:10C37000053C1C420202B0129EC71A531A920402D4
:10C380000B2C925200027401925200029401C2934B
:10C390001402EF27C24314023A4130410A12B2405C
:10C3A000D00774010A43053C1C420202B0129EC72A
:10C3B0001A531A9204020C2C9282000274019252B7
:10C3C00000029401C2931402EF27C24314022B3CD3
:10C3D0000A43053C1C420202B0129EC71A531A922D
:10C3E00004020C2C928200029401925200029601E7
:10C3F000C2931402EF27C2431402153C0A43053CC2
:10C400001C420202B0129EC71A531A9204020B2C4D
:10C41000928200029601925200027401C2931402A9
:10C42000EF27C24314023A413041081238409700C6
:10C430003D9000011C2C0D930F203C90000106281C
:10C440008C104D4C3CC0FF003882063C0C930D24F0
:10C450000D4C0C433880100018830C5C4D6DFC2B88
:10C4600008114D100C1088100DD8384130410712BA
:10C4700047433D900002082812C30D100C104710CE
:10C4800018533D900002F82F08114D100C10881021
:10C490000DD84767062812C34710012002281C53F5
:10C4A0000D633741384130410A120A43053C1C42B2
:10C4B0000202B0129EC71A531A920402092C925219
:10C4C00000029401C2931402F227C2431402253CD5
:10C4D0000A43053C1C420202B0129EC71A531A922C
:10C4E0000402092C925200029601C2931402F22710
:10C4F000C2431402123C0A43053C1C420202B01221
:10C500009EC71A531A920402082C92520002740118
:10C51000C2931402F227C24314023A413041F2D0CE
:10C5200012002A00F2D012002E00E2D22200E2D243
:10C530002600B24010026001B2D010006201B24089
:10C54000D0077201B240E0006401B240E803740118
:10C55000B24010028001B240D0079201B240E00028
:10C560008401B240E8039401B240E0008601B24089
:10C57000E8039601304106120712064D7DD0800077
:10C5800006660767861076F376807F00032C0C43DF
:10C590000D43133C76801800072C76E30E240D1112
:10C5A0000C105683FC23093C369203383C433D4330
:10C5B000043C0C5C0D6D5683FC2F0710374136414F
:10C5C00030410D120C120F120E12D2B323000B28A1
:10C5D000C29315020620D2431402B012FCC7D24304
:10C5E0001502D2C32300E2B323000B28C293150225
:10C5F0000620D2431402B012A0C6D2431502E2C3F1
:10C6000023003E413F413C413D410013B01276C5FD
:10C610000F283D90008006200C9309243D400080A7
:10C620000C433041FB2F3CE33DE31C530D63304191
:10C630003DB00080FC273D40FF7F3C4330417CF310
:10C640007EF30912094C0C9E0328094E0E4C12C3AE
:10C650000F430C430D43091002280C5E0D6F0E5E54
:10C660000F6F0910F92302280C5E0D6F394130411C
:10C67000091209430E9303343EE31E5319D30C935E
:10C6800003343CE31C5339E3B01230C719B302241E
:10C690003CE31C5329B302243EE31E53394130418D
:10C6A0000A122A425C4207024C4C0E4AB01270C673
:10C6B0000E12C14C00003E410C12C14A00003C4128
:10C6C000B0123EC6C28C0702D25307023A41304133
:10C6D000F2D0E0002600F2D0E0004100F2F0FC00D1
:10C6E0002200F2D003002700F2D003002100F2D094
:10C6F000030025003041B240805A2001B012B2C779
:10C70000B012D0C6B0128AC7B0121EC532D2B01253
:10C710002EC2FD3FC29315020824D2531502F29097
:10C720000F0015020228C243150292C362010013D2
:10C730000F4E0D4C0E431C430D5D0E6E0E9F0128D7
:10C740000E8F0C6CF92B3041A2C3B001B2C0002097
:10C75000B201B2400050B201B012D8C73041A2C3FA
:10C76000B001B2C00020B201B2400060B201B0120C
:10C77000D8C73041A2C3B001B2C00020B201B2D0CC
:10C780000070B201B012D8C73041B240F030B001F1
:10C79000B2409A00B201F2D0E0004A0030410F43AB
:10C7A000053C3E40690A3E53FE2F1F530F9CF92B58
:10C7B0003041D242FC105600D242FD105700F2D058
:10C7C00006005800304121830A4C814A00000D4187
:10C7D0005C43B01238C8F93FB2D00300B00192B345
:10C7E000B201FD2F1C42B40130410F4C043CFF4DFF
:10C7F00000001F533E530E93FA233041C2930602AA
:10C800000320D24306023041C243060230410D5C90
:10C81000033CCC4300001C530C9DFB23304182435E
:10C820009401824396018243740130413040EAC74B
:0AC830003040C6C7304030C8304128
:02FFE400C2C594
:02FFF20014C732
:02FFFE0008C039
:00C0080137
:00000001FF
