:10C00000314000043C4000023D400400B012AAC090
:10C01000B0126EC0B012C4C092530202B2901400AB
:10C0200002020C2082430202E2B220000328E2C294
:10C030002100023CE2D2210092C362010013B2400F
:10C0400010006201B240E0006401B24010026001E1
:10C05000B24050C372013041E2422200D2C32200FA
:10C06000D2D32500D2D32400D2C323003041B24022
:10C07000805A2001B01284C0B01258C0B0123EC025
:10C0800032D2FF3FD242FD105700D242FC10560080
:10C09000F24006005800304121830A4C814A0000DA
:10C0A0000D415C43B012CCC0F93F0D5C033CCC4366
:10C0B00000001C530C9DFB23304192530002D2C35D
:0EC0C000230000133040C8C0304098C030410B
:02FFE600BAC09F
:02FFF20018C035
:02FFFE0000C041
:00C000013F
:00000001FF
