:10C00000314000043C4000023D400900B0129AC497
:10C01000B012C6C3B012C2C40612064D0656369000
:10C0200001FF802C064F0656369001FF0C2C064F60
:10C0300036F000800DE6064D0656369000FF0520CE
:10C04000064F06566F203D436D3C064F0656369010
:10C0500000FF3640FF7F08200DB6F5273DF0008039
:10C060003DD0807F0C435E3C0DB65C240FB60220B1
:10C070000DC6F83F0A120B1208120A4C0B4D3BD0AA
:10C0800080000D5D8D10484D0C430D4306430E930B
:10C090000D2416434E93022086108E100E10022897
:10C0A0000C5A4D6B4D100C100666F82B26430124DC
:10C0B00016D30F1002280C5A4D6B4D100C1046660B
:10C0C000F82B3FF0FF00085F38807F001030389079
:10C0D000FF000F340C5A4D6B122C089304240611E8
:10C0E0000C6C4D6D0F3C7D9302203C930B240D4353
:10C0F000023C3D4000FF0B5B0D100C43103C1853FD
:10C100007893F7270B5B48104D1088100DD80C1052
:10C110000628069302201CB302241C530D633841E9
:10C120003B413A4136413041B012B8C40D43B012E0
:10C1300008C2824C0002824D02021F4204020F8399
:10C1400007241F8314241F8321241F832E24573C7C
:10C150001C4200021D4202023E409A993F40F93FB4
:10C16000B01218C0B01264C3824C9401483C1C4207
:10C1700000021D4202023E409A993F40F93FB01230
:10C1800018C0B01264C3824C9601393C1C420002B4
:10C190001D4202023E409A993F40F93FB01218C03A
:10C1A000B01264C3824C74012A3C1C4200021D423E
:10C1B00002023E409A993F40F93FB01218C0B012B7
:10C1C00064C3824C94011C4200021D4202023E40A4
:10C1D0009A993F40F93FB01218C0B01264C3824C24
:10C1E00096011C4200021D4202023E409A993F40C5
:10C1F000F93FB01218C0B01264C3824C74013C40C5
:10C200001400B0124EC430410812384097003D90DF
:10C2100000011C2C0D930F203C90000106288C106F
:10C220004D4C3CC0FF003882063C0C930D240D4C55
:10C230000C433880100018830C5C4D6DFC2B0811EA
:10C240004D100C1088100DD838413041071247436B
:10C250003D900002082812C30D100C10471018530F
:10C260003D900002F82F08114D100C1088100DD8C9
:10C270004767062812C34710012002281C530D638C
:10C28000374138413041F2D012002A00F2D012007A
:10C290002E00E2D22200E2D22600B240100260015B
:10C2A000B2D010006201B240D0077201B240E0008B
:10C2B0006401B240E8037401B24010028001B24050
:10C2C000D0079201B240E0008401B240E80394013B
:10C2D000B240E0008601B240E80396013041061208
:10C2E0000712064D7DD0800006660767861076F33C
:10C2F00076807F00032C0C430D43133C768018009E
:10C30000072C76E30E240D110C105683FC23093CF8
:10C31000369203383C433D43043C0C5C0D6D568320
:10C32000FC2F07103741364130410D120C120F120D
:10C330000E12E2B323001128C29308020C2092438C
:10C3400006021C4204021C532E42B01296C3824EB7
:10C350000402D2430802E2C323003E413F413C4174
:10C360003D410013B012DEC20F283D900080062030
:10C370000C9309243D4000800C433041FB2F3CE3EB
:10C380003DE31C530D6330413DB00080FC273D4030
:10C39000FF7F3C433041091209430E9303343EE3CF
:10C3A0001E5319D30C9303343CE31C5339E3B012EE
:10C3B00022C419B302243CE31C5329B302243EE3F4
:10C3C0001E5339413041B240805A2001B01262C43C
:10C3D000B012E8C3B0123AC4B01286C2B012AAC4F6
:10C3E00032D2B01228C1FD3FF2D080002600F2D038
:10C3F00080004100E2C32200E2D32700E2D3210003
:10C40000E2D325003041C29308020824D253080227
:10C41000F2900F0008020228C243080292C3620190
:10C4200000130F4E0D4C0E431C430D5D0E6E0E9F00
:10C4300001280E8F0C6CF92B3041B2407010B00106
:10C44000B2409870B201F2D080004A0030410F43F0
:10C450000F9C062C3E40690A3E53FE2F1F53F83FA7
:10C460003041D242FC105600D242FD105700F2403B
:10C4700006005800304121830A4C814A00000D41DA
:10C480005C43B012C6C4F93FB2D00300B00192B30E
:10C49000B201FD2F1C42B40130410D5C033CCC4382
:10C4A00000001C530C9DFB233041824394018243C6
:10C4B0009601824374013041B01288C4304130404B
:08C4C00076C43040BEC43041D7
:02FFE4002AC32E
:02FFF20006C443
:02FFFE0000C041
:00C000013F
:00000001FF
